{
  "contractName": "Landr",
  "abi": [
    {
      "constant": false,
      "inputs": [
        {
          "internalType": "uint256",
          "name": "id",
          "type": "uint256"
        }
      ],
      "name": "addid",
      "outputs": [],
      "payable": false,
      "stateMutability": "nonpayable",
      "type": "function"
    },
    {
      "constant": false,
      "inputs": [
        {
          "internalType": "string",
          "name": "fname",
          "type": "string"
        },
        {
          "internalType": "string",
          "name": "sname",
          "type": "string"
        },
        {
          "internalType": "string",
          "name": "addr",
          "type": "string"
        },
        {
          "internalType": "string",
          "name": "post",
          "type": "string"
        },
        {
          "internalType": "string",
          "name": "city",
          "type": "string"
        },
        {
          "internalType": "uint256",
          "name": "pincode",
          "type": "uint256"
        },
        {
          "internalType": "uint256",
          "name": "adhaar",
          "type": "uint256"
        },
        {
          "internalType": "uint256",
          "name": "ration",
          "type": "uint256"
        },
        {
          "internalType": "uint256",
          "name": "phone",
          "type": "uint256"
        }
      ],
      "name": "addbuyer",
      "outputs": [],
      "payable": false,
      "stateMutability": "nonpayable",
      "type": "function"
    },
    {
      "constant": false,
      "inputs": [
        {
          "internalType": "string",
          "name": "fname",
          "type": "string"
        },
        {
          "internalType": "string",
          "name": "sname",
          "type": "string"
        },
        {
          "internalType": "string",
          "name": "addr",
          "type": "string"
        },
        {
          "internalType": "string",
          "name": "post",
          "type": "string"
        },
        {
          "internalType": "string",
          "name": "city",
          "type": "string"
        },
        {
          "internalType": "uint256",
          "name": "pincode",
          "type": "uint256"
        },
        {
          "internalType": "uint256",
          "name": "adhaar",
          "type": "uint256"
        },
        {
          "internalType": "uint256",
          "name": "ration",
          "type": "uint256"
        },
        {
          "internalType": "uint256",
          "name": "phone",
          "type": "uint256"
        }
      ],
      "name": "addseller",
      "outputs": [],
      "payable": false,
      "stateMutability": "nonpayable",
      "type": "function"
    },
    {
      "constant": false,
      "inputs": [
        {
          "internalType": "uint256",
          "name": "sfnum",
          "type": "uint256"
        },
        {
          "internalType": "string",
          "name": "addr",
          "type": "string"
        },
        {
          "internalType": "uint256",
          "name": "pincode",
          "type": "uint256"
        },
        {
          "internalType": "string",
          "name": "north",
          "type": "string"
        },
        {
          "internalType": "string",
          "name": "south",
          "type": "string"
        },
        {
          "internalType": "string",
          "name": "east",
          "type": "string"
        },
        {
          "internalType": "string",
          "name": "west",
          "type": "string"
        },
        {
          "internalType": "uint256",
          "name": "m_north",
          "type": "uint256"
        },
        {
          "internalType": "uint256",
          "name": "m_south",
          "type": "uint256"
        },
        {
          "internalType": "uint256",
          "name": "m_east",
          "type": "uint256"
        },
        {
          "internalType": "uint256",
          "name": "m_west",
          "type": "uint256"
        },
        {
          "internalType": "uint256",
          "name": "t_area",
          "type": "uint256"
        },
        {
          "internalType": "uint256",
          "name": "rate",
          "type": "uint256"
        },
        {
          "internalType": "string",
          "name": "word",
          "type": "string"
        },
        {
          "internalType": "uint256",
          "name": "t_rate",
          "type": "uint256"
        }
      ],
      "name": "addlanddetails",
      "outputs": [],
      "payable": false,
      "stateMutability": "nonpayable",
      "type": "function"
    }
  ],
  "bytecode": "0x6080604052600060015560006003556000600555600060075534801561002457600080fd5b506111e9806100346000396000f3fe608060405234801561001057600080fd5b506004361061004c5760003560e01c80634e77f08a1461005157806360e858b51461007f578063892d5d02146103bf578063d106c866146106ff575b600080fd5b61007d6004803603602081101561006757600080fd5b8101908080359060200190929190505050610b08565b005b6103bd600480360361012081101561009657600080fd5b81019080803590602001906401000000008111156100b357600080fd5b8201836020820111156100c557600080fd5b803590602001918460018302840111640100000000831117156100e757600080fd5b91908080601f016020809104026020016040519081016040528093929190818152602001838380828437600081840152601f19601f8201169050808301925050505050505091929192908035906020019064010000000081111561014a57600080fd5b82018360208201111561015c57600080fd5b8035906020019184600183028401116401000000008311171561017e57600080fd5b91908080601f016020809104026020016040519081016040528093929190818152602001838380828437600081840152601f19601f820116905080830192505050505050509192919290803590602001906401000000008111156101e157600080fd5b8201836020820111156101f357600080fd5b8035906020019184600183028401116401000000008311171561021557600080fd5b91908080601f016020809104026020016040519081016040528093929190818152602001838380828437600081840152601f19601f8201169050808301925050505050505091929192908035906020019064010000000081111561027857600080fd5b82018360208201111561028a57600080fd5b803590602001918460018302840111640100000000831117156102ac57600080fd5b91908080601f016020809104026020016040519081016040528093929190818152602001838380828437600081840152601f19601f8201169050808301925050505050505091929192908035906020019064010000000081111561030f57600080fd5b82018360208201111561032157600080fd5b8035906020019184600183028401116401000000008311171561034357600080fd5b91908080601f016020809104026020016040519081016040528093929190818152602001838380828437600081840152601f19601f82011690508083019250505050505050919291929080359060200190929190803590602001909291908035906020019092919080359060200190929190505050610b52565b005b6106fd60048036036101208110156103d657600080fd5b81019080803590602001906401000000008111156103f357600080fd5b82018360208201111561040557600080fd5b8035906020019184600183028401116401000000008311171561042757600080fd5b91908080601f016020809104026020016040519081016040528093929190818152602001838380828437600081840152601f19601f8201169050808301925050505050505091929192908035906020019064010000000081111561048a57600080fd5b82018360208201111561049c57600080fd5b803590602001918460018302840111640100000000831117156104be57600080fd5b91908080601f016020809104026020016040519081016040528093929190818152602001838380828437600081840152601f19601f8201169050808301925050505050505091929192908035906020019064010000000081111561052157600080fd5b82018360208201111561053357600080fd5b8035906020019184600183028401116401000000008311171561055557600080fd5b91908080601f016020809104026020016040519081016040528093929190818152602001838380828437600081840152601f19601f820116905080830192505050505050509192919290803590602001906401000000008111156105b857600080fd5b8201836020820111156105ca57600080fd5b803590602001918460018302840111640100000000831117156105ec57600080fd5b91908080601f016020809104026020016040519081016040528093929190818152602001838380828437600081840152601f19601f8201169050808301925050505050505091929192908035906020019064010000000081111561064f57600080fd5b82018360208201111561066157600080fd5b8035906020019184600183028401116401000000008311171561068357600080fd5b91908080601f016020809104026020016040519081016040528093929190818152602001838380828437600081840152601f19601f82011690508083019250505050505050919291929080359060200190929190803590602001909291908035906020019092919080359060200190929190505050610ca1565b005b610b0660048036036101e081101561071657600080fd5b81019080803590602001909291908035906020019064010000000081111561073d57600080fd5b82018360208201111561074f57600080fd5b8035906020019184600183028401116401000000008311171561077157600080fd5b91908080601f016020809104026020016040519081016040528093929190818152602001838380828437600081840152601f19601f82011690508083019250505050505050919291929080359060200190929190803590602001906401000000008111156107de57600080fd5b8201836020820111156107f057600080fd5b8035906020019184600183028401116401000000008311171561081257600080fd5b91908080601f016020809104026020016040519081016040528093929190818152602001838380828437600081840152601f19601f8201169050808301925050505050505091929192908035906020019064010000000081111561087557600080fd5b82018360208201111561088757600080fd5b803590602001918460018302840111640100000000831117156108a957600080fd5b91908080601f016020809104026020016040519081016040528093929190818152602001838380828437600081840152601f19601f8201169050808301925050505050505091929192908035906020019064010000000081111561090c57600080fd5b82018360208201111561091e57600080fd5b8035906020019184600183028401116401000000008311171561094057600080fd5b91908080601f016020809104026020016040519081016040528093929190818152602001838380828437600081840152601f19601f820116905080830192505050505050509192919290803590602001906401000000008111156109a357600080fd5b8201836020820111156109b557600080fd5b803590602001918460018302840111640100000000831117156109d757600080fd5b91908080601f016020809104026020016040519081016040528093929190818152602001838380828437600081840152601f19601f82011690508083019250505050505050919291929080359060200190929190803590602001909291908035906020019092919080359060200190929190803590602001909291908035906020019092919080359060200190640100000000811115610a7657600080fd5b820183602082011115610a8857600080fd5b80359060200191846001830284011164010000000083111715610aaa57600080fd5b91908080601f016020809104026020016040519081016040528093929190818152602001838380828437600081840152601f19601f82011690508083019250505050505050919291929080359060200190929190505050610df0565b005b610b10610fe7565b81816000018181525050806000806001548152602001908152602001600020600082015181600001559050506001600081548092919060010191905055505050565b610b5a610ffa565b898160000181905250888160200181905250878160400181905250868160600181905250858160800181905250848160a0018181525050838160c0018181525050828160e00181815250508181610100018181525050806002600060035481526020019081526020016000206000820151816000019080519060200190610be2929190611046565b506020820151816001019080519060200190610bff929190611046565b506040820151816002019080519060200190610c1c929190611046565b506060820151816003019080519060200190610c39929190611046565b506080820151816004019080519060200190610c56929190611046565b5060a0820151816005015560c0820151816006015560e08201518160070155610100820151816008015590505060036000815480929190600101919050555050505050505050505050565b610ca96110c6565b898160000181905250888160200181905250878160400181905250868160600181905250858160800181905250848160a0018181525050838160c0018181525050828160e00181815250508181610100018181525050806004600060055481526020019081526020016000206000820151816000019080519060200190610d31929190611046565b506020820151816001019080519060200190610d4e929190611046565b506040820151816002019080519060200190610d6b929190611046565b506060820151816003019080519060200190610d88929190611046565b506080820151816004019080519060200190610da5929190611046565b5060a0820151816005015560c0820151816006015560e08201518160070155610100820151816008015590505060056000815480929190600101919050555050505050505050505050565b610df8611112565b8f8160200181815250508e81604001819052508d8160600181815250508c81608001819052508b8160a001819052508a8160c00181905250898160e001819052508881610100018181525050878161012001818152505086816101400181815250508581610160018181525050848161018001818152505081816101e001818152505083816101a001818152505082816101c001819052508060066000600754815260200190815260200160002060008201518160000155602082015181600101556040820151816002019080519060200190610ed6929190611046565b50606082015181600301556080820151816004019080519060200190610efd929190611046565b5060a0820151816005019080519060200190610f1a929190611046565b5060c0820151816006019080519060200190610f37929190611046565b5060e0820151816007019080519060200190610f54929190611046565b506101008201518160080155610120820151816009015561014082015181600a015561016082015181600b015561018082015181600c01556101a082015181600d01556101c082015181600e019080519060200190610fb4929190611046565b506101e082015181600f015590505060076000815480929190600101919050555050505050505050505050505050505050565b6040518060200160405280600081525090565b6040518061012001604052806060815260200160608152602001606081526020016060815260200160608152602001600081526020016000815260200160008152602001600081525090565b828054600181600116156101000203166002900490600052602060002090601f016020900481019282601f1061108757805160ff19168380011785556110b5565b828001600101855582156110b5579182015b828111156110b4578251825591602001919060010190611099565b5b5090506110c2919061118f565b5090565b6040518061012001604052806060815260200160608152602001606081526020016060815260200160608152602001600081526020016000815260200160008152602001600081525090565b604051806102000160405280600081526020016000815260200160608152602001600081526020016060815260200160608152602001606081526020016060815260200160008152602001600081526020016000815260200160008152602001600081526020016000815260200160608152602001600081525090565b6111b191905b808211156111ad576000816000905550600101611195565b5090565b9056fea265627a7a72315820ace465a9d65b2cdbd49acf2ec40c134e59cb95a3e2d1701735b075da0f67950d64736f6c63430005100032",
  "source": "pragma solidity >=0.4.21 <0.7.0;\ncontract Landr{\n    struct form{\n        uint id;\n    }\n    struct buyer{\n        string fname;\n        string sname;\n        string addr;\n        string post;\n        string city;\n        uint pincode;\n        uint adhaar;\n        uint ration;\n        uint phone;\n    }\n    struct seller{\n        string fname;\n        string sname;\n        string addr;\n        string post;\n        string city;\n        uint pincode;\n        uint adhaar;\n        uint ration;\n        uint phone;\n    }\n    struct land{\n        uint date;\n        uint snum;\n        string addr;\n        uint pincode;\n        string north;\n        string south;\n        string east;\n        string west;\n        uint m_north;\n        uint m_south;\n        uint m_east;\n        uint m_west;\n        uint t_area;\n        uint rate;\n        string word;\n        uint t_rate;\n    }\n    mapping(uint => form) Trail1;\n        uint trailcount1=0;\n    mapping(uint => buyer) Trail2;\n        uint trailcount2=0;\n    mapping(uint => seller) Trail3;\n        uint trailcount3=0;\n    mapping(uint => land) Trail4;\n        uint trailcount4=0;\n\n    function addid(uint id) public {\n        form memory newid;\n        newid.id = id; \n        Trail1[trailcount1] = newid;\n        trailcount1++;\n    }\n    function addbuyer(string memory fname,\n    string memory sname,string memory addr,\n    string memory post,string memory city,uint pincode,uint adhaar,\n    uint ration,uint phone) public  {\n        buyer memory bu;\n        bu.fname = fname;\n        bu.sname = sname;\n        bu.addr = addr;\n        bu.post = post;\n        bu.city = city;\n        bu.pincode = pincode;\n        bu.adhaar = adhaar;\n        bu.ration = ration;\n        bu.phone = phone;\n        Trail2[trailcount2] = bu;\n        trailcount2++;\n    }\n     function addseller(string memory fname,string memory sname,\n     string memory addr,string memory post,string memory city,\n     uint pincode,uint adhaar,uint ration, uint phone)public{\n        seller memory se;\n       se.fname = fname;\n        se.sname = sname;\n        se.addr = addr;\n        se.post = post;\n        se.city = city;\n        se.pincode = pincode;\n        se.adhaar = adhaar;\n        se.ration = ration;\n        se.phone = phone;\n\n        Trail3[trailcount3] = se;\n        trailcount3++;\n        }\n    function addlanddetails(uint sfnum,string memory addr,uint pincode,\n     string memory north,string memory south,string memory east,string memory west,\n     uint m_north,uint m_south,uint m_east,uint m_west,uint t_area,uint rate,string memory word,uint t_rate)public{\n        land memory la;\n        la.snum = sfnum;\n        la.addr = addr;\n        la.pincode = pincode;\n        la.north = north;\n        la.south = south;\n        la.east = east;\n        la.west = west;\n        la.m_north = m_north;\n        la.m_south = m_south;\n        la.m_east = m_east;\n        la.m_west = m_west;\n        la.t_area = t_area;\n        la.t_rate = t_rate;\n        la.rate = rate;\n        la.word = word;\n\n        Trail4[trailcount4] = la;\n        trailcount4++;\n        }\n\n}\n",
  "sourcePath": "/home/one/Landr/contracts/Landr.sol",
  "compiler": {
    "name": "solc",
    "version": "0.5.16+commit.9c3226ce.Emscripten.clang"
  },
  "schemaVersion": "3.0.23",
  "updatedAt": "2020-03-09T16:25:39.418Z",
  "networkType": "ethereum",
  "devdoc": {
    "methods": {}
  },
  "userdoc": {
    "methods": {}
  }
}